:020000040000FA
:100000000A128A11E62FFF1B0D2883137F1883170E
:100010000008840A0319FF0A080000308A00040857
:10002000840A82070034013400340A340034643412
:100030000034E83403341034273431343234333468
:10004000343400347334693472343D3425346434C8
:100050002C347334683431343D34253464342C34D6
:1000600073346D3474343D3425346434003469346D
:100070006E34743465346E347434653420346434CE
:10008000653420346E347534653476346F3400341E
:100090006234693465346E34763465346E34693470
:1000A00064346F34003470346134733473347734AF
:1000B0006F34723464343A34003462346C346F34E4
:0E00C000713475346534613464346F34003447
:10046E0064008001840A0406031900340406382A45
:10047E00F030F0007008831603138605F030F0009C
:10048E007008860481138316031789010800013052
:10049E000A128A1162230A128A110830F400C93036
:1004AE00F300F30B582AF40B582A5D2A0800313456
:1004BE0032343334413434343534363442343734D0
:1004CE003834393443342A343034233444347E08B7
:1004DE008A007F0882000A128A116E220A128A117D
:1004EE008000840A04087D0603190034FF0A0319EC
:1004FE00FE0A722AF001831203138718872A882AAC
:10050E008A2AF001F00A071C8D2A8E2A902AF00101
:10051E00F00A071D932A942A962AF001F00A700811
:10052E000800AE2A89140B30F2002630F1005D303F
:10053E00F000F00BA02AF10BA02AF20BA02AA72A9A
:10054E008312031389100130F0007008A3070530E1
:10055E00831203132302031CB52AB62A992A080014
:10056E00CC2A7408FF00730884000A128A11032033
:10057E000A128A110A128A1198230A128A1101305C
:10058E00F3070318F40A0030F407740883120313F8
:10059E00FF00730884000A128A1103200A128A11BE
:1005AE00003A031DDB2ADC2AB82A0800831603133F
:1005BE0088012730F400F530F300F30BE42AF40B36
:1005CE00E42A02300A128A1162230A128A11283092
:1005DE000A128A1162230A128A1101300A128A1132
:1005EE0062230A128A110C300A128A1162230A122D
:1005FE008A1106300A128A1162230A128A11080021
:10060E00F9000230790203180D2B0E2B1B2B7508E7
:10061E000F398038F8007808FA007A080A128A1121
:10062E0062230A128A11272B75080F39C038F80079
:10063E007808FA007A080A128A1162230A128A11BD
:10064E007608F3007708F4000A128A11B7220A120C
:10065E008A1108000A128A114E220A128A11F50115
:10066E004B30F6008030F70000300A128A11072353
:10067E000A128A111530FD004B30FC00BE30FB0013
:10068E00FB0B472BFC0B472BFD0B472B000083125C
:10069E00031389141530FD004B30FC00BE30FB00F7
:1006AE00FB0B572BFC0B572BFD0B572B000083120C
:1006BE000313A6010800F200F0307205F000831259
:1006CE00031308080F3970048800081088140000FE
:1006DE008312031388100330F1009730F000F00BF3
:1006EE00762BF10B762B7B2B7208F0000430031067
:1006FE00F00DFF3E031D7E2B8312031308080F39E6
:10070E0070048800881400008312031388100830C8
:10071E00F100C930F000F00B922BF10B922B972BBE
:10072E000800F200F0307205F0008312031308087F
:10073E000F39700488000814881400008312031304
:10074E0088100330F1009730F000F00BAC2BF10B5A
:10075E00AC2BB12B7208F00004300310F00DFF3EED
:10076E00031DB42B8312031308080F39700488007D
:10077E00881400008312031388100830F100C9306A
:10078E00F000F00BC82BF10BC82BCD2B080078080E
:10079E0079040319D32BD42B032CFD01FD0AE22B74
:1007AE0001300310F80DF90DFF3E031DD82B01305B
:1007BE00FC007C08FD07F91FE52BE62BD72B7908EB
:1007CE007B02031DEC2B78087A02031CEF2BF02B17
:1007DE00F62B7808FA027908031CFB03FB020130A2
:1007EE000310F90CF80CFF3E031DF72B0130FD0230
:1007FE00031D022C032CE62B7B08F9007A08F80067
:10080E000800F501F6017008710403190F2C102C65
:10081E00472CF701F70A1E2C01300310F00DF10DD5
:10082E00FF3E031D142C0130F4007408F707F11F6E
:10083E00212C222C132C01300310F50DF60DFF3E4A
:10084E00031D232C71087302031D2F2C70087202D6
:10085E00031C322C332C3A2C7008F2027108031C44
:10086E00F303F302751401300310F10CF00CFF3E8C
:10087E00031D3B2C0130F702031D462C472C222C66
:10088E007608F1007508F0000800F500812C750857
:10089E008400831300080319552C562C662C7008FF
:1008AE0084000A128A110D200A128A11F3007508AB
:1008BE008400000873060319652C662C792C7008C9
:1008CE0084000A128A110D200A128A11F30075088B
:1008DE0084000008F40073087402F000F101031C98
:1008EE00F103912C0130F3007308F5070130F3008A
:1008FE007308F0070130F1020030031CF203F2021C
:10090E00710A031D8E2C720A031D8E2C8F2C4E2CF9
:10091E00F001F10108000A128A1181220A128A11CD
:10092E00013A031D9B2C9C2CDB2C033083120313EA
:10093E00D0005008A6001030D0005008BD0022088C
:10094E00D100D2015108BE005208BF002108D300C9
:10095E00D4015308C0005408C1002008D500D601A8
:10096E005508C2005608C30027300A128A11E52521
:10097E000A128A11F5012730F6000030F700003018
:10098E000A128A1107230A128A11153083120313D1
:10099E00D2004B30D100BD30D000D00BD42CD10BB7
:1009AE00D42CD20BD42CDB2C0800713083160313FD
:1009BE008F0089010A128A11DD220A128A110A1287
:1009CE008A113F220A128A110730831603138700F9
:1009DE0000308312031387180130A200003007186D
:1009EE000130A100003007190130A000A6018312CA
:1009FE0003132608031D042D052D0B2D0A128A1133
:100A0E0032250A128A11FE2C2603031D0F2D102DDE
:100A1E00162D0A128A1192240A128A11FE2C023005
:100A2E002606031D1B2D1C2D222D0A128A11312381
:100A3E000A128A11FE2C03302606031D272D282D9F
:100A4E002E2D0A128A1198220A128A11FE2CFE2CC1
:100A5E000A128A110028F5014130F6008030F700A5
:100A6E0000300A128A1107230A128A11C0300A12A4
:100A7E008A1162230A128A110A128A11E5260A12B3
:100A8E008A11FB007B0883120313D0005008031950
:100A9E00512D522D662D2A300A128A1198230A12D0
:100AAE008A11831203135008FB002508383E840078
:100ABE007B08831380000130FB007B08A507023002
:100ACE00FD000430FC00BA30FB00FB0B6C2DFC0B60
:100ADE006C2DFD0B6C2D00000430831203132502C8
:100AEE00031C7A2D7B2D432D0B30FB007B08F00071
:100AFE000430F1000030F20038300A128A114C2412
:100B0E000A128A1170087104031D8E2D8F2DB22DBD
:100B1E000A128A114E220A128A11F5013630F60097
:100B2E008030F70000300A128A1107230A128A1148
:100B3E001530FD004B30FC00BE30FB00FB0BA52D2D
:100B4E00FC0BA52DFD0BA52D000083120313091020
:100B5E00A601A60AE42D0330831203132402031800
:100B6E00B92DBA2DD22D0A128A114E220A128A11CD
:100B7E00F5012530F6008030F70000300A128A1198
:100B8E0007230A128A118312031309150130FB0081
:100B9E007B08A407E42D03302406031DD72DD82D82
:100BAE00E42D0A128A114E220A128A11831203139D
:100BBE00A5010230FB007B08A60008008312031378
:100BCE00CE00C901CA013E30C4004408C700CA2E77
:100BDE0025304F060319F42DF52D072E4F08C400AE
:100BEE004E0884004408831380000130C40044087A
:100BFE00CE070130C9070318CA0A0030CA07CA2E29
:100C0E00C8010130BD07FF303D0784000A128A116A
:100C1E000D200A128A11CF00C400C5014508003A02
:100C2E0003191A2ECA2E4408003A0319DC2E643A10
:100C3E000319252E0D3A0319252ECA2E47088400B6
:100C4E0083130008CC00840A0008CD000230C400D3
:100C5E004408C707CD1F342E352E3E2E0330C40058
:100C6E004408C804CC09CD09CC0A0319CD0ACF011A
:100C7E00CF0A4F08C4004407013E84000A128A11AD
:100C8E000D200A128A11C5000A128A110D200A12AD
:100C9E008A11C60046084D02031D572E45084C0208
:100CAE0003185A2E5B2E5C2E662E0130C4004408AB
:100CBE00CF0705304F06031D652E662E402E4808C1
:100CCE00033903196B2E6C2E7D2E2D30C4004E0869
:100CDE0084004408831380000130C4004408CE070A
:100CEE000130C9070318CA0A0030CA074F08C400EA
:100CFE004408CB00C12E0A30F8000030F9004B0832
:100D0E00C4004407013E84000A128A110D200A1203
:100D1E008A11F0000A128A110D200A128A11F100AE
:100D2E004D08F3004C08F2000A128A1108240A1228
:100D3E008A117108FB007008FA000A128A11CE237C
:100D4E000A128A117808303E83120313C500450833
:100D5E00CF004F08C4004E0884004408831380005F
:100D6E000130C4004408CE070130C9070318CA0A6F
:100D7E000030CA07FF30C4004408CB074B0A031DDE
:100D8E00C92ECA2E822E0130BD07FF303D078400CA
:100D9E000A128A110D200A128A11C4004408CF00CB
:100DAE004F08031DDB2EDC2EEF2D4E08840083131F
:100DBE0080014A08BE004908BD0008003D3084008D
:100DCE005730F0000408F1001030F2007008840073
:100DDE0083130008F300F00A710884007308800082
:100DEE00F10AF20BED2E83120313CD01CE01CF01CA
:100DFE00831203134E084F04031D062F072F342FA3
:100E0E00FE3086004230F000F00B0B2F0000132F47
:100E1E003D08F0007008CD0083120313061E182F34
:100E2E00192F0F2F1E2F3E08F0007008CD00861EC2
:100E3E00212F222F1A2F272F3F08F0007008CD00E8
:100E4E00061F2A2F2B2F232F302F4008F00070085B
:100E5E00CD00861F332F342F2C2F4E034F04031D2E
:100E6E00392F3A2F672FFD3086004230F000F00BFD
:100E7E003E2F0000462F4108F0007008CD0083126F
:100E8E000313061E4B2F4C2F422F512F4208F000FA
:100E9E007008CD00861E542F552F4D2F5A2F430804
:100EAE00F0007008CD00061F5D2F5E2F562F632FAA
:100EBE004408F0007008CD00861F662F672F5F2F45
:100ECE0002304E064F04031D6D2F6E2F9B2FFB30ED
:100EDE0086004230F000F00B722F00007A2F45088A
:100EEE00F0007008CD0083120313061E7F2F802F93
:100EFE00762F852F4608F0007008CD00861E882FAD
:100F0E00892F812F8E2F4708F0007008CD00061F05
:100F1E00912F922F8A2F972F4808F0007008CD003E
:100F2E00861F9A2F9B2F932F03304E064F04031DBF
:100F3E00A12FA22FCF2FF73086004230F000F00BFA
:100F4E00A62F0000AE2F4908F0007008CD008312C6
:100F5E000313061EB32FB42FAA2FB92F4A08F00081
:100F6E007008CD00861EBC2FBD2FB52FC22F4B088B
:100F7E00F0007008CD00061FC52FC62FBE2FCB2F39
:100F8E004C08F0007008CD00861FCE2FCF2FC72F34
:100F9E000130CE070318CF0A0030CF074F08803A32
:100FAE00FF0080307F02031DDE2F04304E02031C33
:100FBE00E12FE22FFF2E831203134D080800831337
:100FCE006730FD000230FE005E30FF0057308400B7
:100FDE000A128A1172220A128A11203084003D30C0
:100FEE000A128A1137220A128A1183010A128A11F1
:020FFE00DC2CE9
:04400E00D520FF3F7B
:00000001FF
